S01A000050756C6C55707341706C69636174696F6E312E7372656300
S11300000C9434000C943E000C943E000C943E007E
S11300100C943E000C943E000C943E000C943E0064
S11300200C943E000C943E000C943E000C943E0054
S11300300C943E000C943E000C943E000C943E0044
S11300400C943E000C943E000C943E000C943E0034
S11300500C943E000C943E000C943E000C943E0024
S11300600C943E000C943E0011241FBECFEFD8E048
S1130070DEBFCDBF0E9440000C944E000C940000E3
S11300802098209A8FEF85B987B918B895E08AE04F
S1130090189902C088B9FCCF98B9FACFF894FFCF69
S9030000FC
