:100000000C9434000C9449000C9449000C94690041
:100010000C9449000C9449000C9449000C9449003C
:100020000C9449000C9449000C9449000C9449002C
:100030000C9449000C9449000C9449000C9449001C
:100040000C9449000C9449000C9449000C9449000C
:100050000C9449000C9449000C9449000C944900FC
:100060000C9449000C94490011241FBECFEFD8E036
:10007000DEBFCDBF11E0A0E0B1E0ECE0F1E002C0F6
:1000800005900D92A030B107D9F70E944B000C9457
:1000900084000C940000F8941AB88FEF84B98BB9DF
:1000A00084E08093680085E080936D007894289ABE
:1000B0008FE19EE40197F1F700C0000028989FE7C8
:1000C00028E381E0915020408040E1F700C000002B
:1000D000EECF1F920F920FB60F9211242F938F9392
:1000E0009F93299A2FE789EA93E02150804090401E
:1000F000E1F700C0000029989F918F912F910F90F8
:0C0100000FBE0F901F901895F894FFCFD1
:00000001FF
