S01A000050756C6C55707341706C69636174696F6E322E73726563FF
S11300000C9434000C943E000C943E000C943E007E
S11300100C943E000C943E000C943E000C943E0064
S11300200C943E000C943E000C943E000C943E0054
S11300300C943E000C943E000C943E000C943E0044
S11300400C943E000C943E000C943E000C943E0034
S11300500C943E000C943E000C943E000C943E0024
S11300600C943E000C943E0011241FBECFEFD8E048
S1130070DEBFCDBF0E9440000C9459000C940000D8
S1130080209A389A579880E88BB9289A87EA91E69B
S11300900197F1F700C00000289887EA91E60197DC
S11300A0F1F700C000004F9B02C0409AEECF409889
S10900B0ECCFF894FFCF31
S9030000FC
