S017000050756C6C55707341707033636F64652E7372656349
S11300000C9434000C943E000C943E000C943E007E
S11300100C943E000C943E000C943E000C943E0064
S11300200C943E000C943E000C943E000C943E0054
S11300300C943E000C943E000C943E000C943E0044
S11300400C943E000C943E000C943E000C943E0034
S11300500C943E000C943E000C943E000C943E0024
S11300600C943E000C943E0011241FBECFEFD8E048
S1130070DEBFCDBF0E9440000C9447000C940000EA
S113008014B88FEF87B985B983B188B9FDCFF894D7
S1050090FFCF9C
S9030000FC
