S0130000494E5445525255505453352E73726563BC
S11300000C9434000C943E000C943E000C94980024
S11300100C943E000C94B4000C943E000C943E00EE
S11300200C943E000C943E000C943E000C943E0054
S11300300C943E000C943E000C943E000C943E0044
S11300400C943E000C943E000C943E000C943E0034
S11300500C943E000C943E000C943E000C943E0024
S11300600C943E000C943E0011241FBECFEFD8E048
S1130070DEBFCDBF0E9483000C94D0000C9400001E
S113008081E08BB92FEB8CE595E1215080409040C5
S1130090E1F700C000001BB8089585E090E021E07E
S11300A02BB93FE946E851E0315040405040E1F778
S11300B000C000001BB83FE946E851E03150404021
S11300C05040E1F700C0000001961816190644F3E9
S11300D0089582E08BB92FEB87E299E021508040AC
S11300E09040E1F700C000001BB8089584E08BB98C
S11300F02FE382E49FE0215080409040E1F700C06C
S113010000001BB80895F89481E08093680080E3B0
S113011080936B001AB88FEF84B985B978940E94E4
S113012040000E944D000E9469000E947600F7CFB3
S11301301F920F920FB60F9211242F938F939F93B8
S113014088E08BB92FE38DE093E02150804090400C
S1130150E1F700C000001BB89F918F912F910F9081
S11301600FBE0F901F9018951F920F920FB60F920B
S113017011242F938F939F9380E18BB92FE38DE00C
S113018093E0215080409040E1F700C000001BB88C
S11301909F918F912F910F900FBE0F901F901895E4
S10701A0F894FFCFFD
S9030000FC
