S0160000496E74657272757074696F6E73312E7372656357
S11300000C9434000C943E000C944D000C943E006F
S11300100C943E000C943E000C943E000C943E0064
S11300200C943E000C943E000C943E000C943E0054
S11300300C943E000C943E000C943E000C943E0044
S11300400C943E000C943E000C943E000C943E0034
S11300500C943E000C943E000C943E000C943E0024
S11300600C943E000C943E0011241FBECFEFD8E048
S1130070DEBFCDBF0E9440000C945F000C940000D2
S1130080F89484E08093690082E08DBB81E084B9B8
S113009087EF8AB98BB97894FFCF1F920F920FB66E
S11300A00F9211248F939F9395B181E0892785B98D
S11300B09F918F910F900FBE0F901F901895F894F9
S10500C0FFCF6C
S9030000FC
