:100000000C9434000C944B000C9462000C94490046
:100010000C9449000C9449000C9449000C9449003C
:100020000C9449000C9449000C9449000C9449002C
:100030000C9449000C9449000C9449000C9449001C
:100040000C9449000C9449000C9449000C9449000C
:100050000C9449000C9449000C9449000C944900FC
:100060000C9449000C94490011241FBECFEFD8E036
:10007000DEBFCDBF11E0A0E0B1E0ECE4F1E002C0F2
:1000800005900D92A230B107D9F70E948D000C9413
:10009000A4000C9400001F920F920FB60F9211242F
:1000A0008F939F938091000190910101C29690934C
:1000B0000101809300019F918F910F900FBE0F90CF
:1000C0001F9018951F920F920FB60F9211248F93C5
:1000D0009F938091000190910101C297909301013B
:1000E000809300019F918F910F900FBE0F901F90F2
:1000F00018958091000190910101813D27E09207C0
:100100005CF4E9EFF0E03197F1F700C000000196F0
:10011000813DF7E09F07A9F70895F89488E0809360
:10012000690083E08DBB8FEF84B91AB88CE08BB97E
:100130007894C0E0D0E0C5B90E9479002196C1153D
:0C01400081E0D807C1F7F5CFF894FFCF9D
:02014C00E803C6
:00000001FF
